:1000000008308A0000280000FF00030E8301A100D1
:100010000A08A0008A010408A2007708A300780853
:10002000A4007908A5007A08A600831383128C30F7
:100030008400001D1D280C192E2822088400230886
:10004000F7002408F8002508F9002608FA0020081F
:100050008A00210E8300FF0E7F0E09008A110A120A
:1000600039280A108A100A11820728340C34013406
:100070000634AC08031D4728451145088316870040
:1000800083120715093097000130AC005028451144
:100090004508831687008312071108309700AC01CA
:1000A0008E018F018E010C118A110A121D28413711
:1000B0006717A029653976173D00493767392E1033
:1000C000413767173D0041376717A0296539761713
:1000D000BD122E18661020005430840083130008CF
:1000E000031980280130F800F701F70B7528F80B89
:1000F00074284A30F700F70B7B287E28800B722883
:1001000008005B0EF039F7000F300805770488000F
:10011000000008148B28081008000808F700080ED3
:100120000F39F80008008316081088100811831290
:1001300088100F3083160805F038880083120815E0
:100140000000081400008D207808DB000810000073
:10015000081400008D207808DA0008100F3083168C
:100160000805880083125B0EF700F030F70577086A
:100170005A04F8007808DA00DA1B9928581C88100D
:10018000581888140000081100000810590EDA00F1
:100190000F30DA055A08DB00812059080F39DA00E0
:1001A000DB00812008000F30831608058800081046
:1001B0008810081183128810081108100F30D4001D
:1001C0006C200130C6004608033C031CEF280330B6
:1001D000DB0081200530D4006C20C60AE328023001
:1001E000DB0081200530D4006C20C6014608033CAA
:1001F000031C032946083120C700D8014708D9004D
:100200009320C60AF6288A150A122328550B0929B5
:100210000C294030D6000D29D60101305402D607F2
:1002200056088038D700D8015708D9009320080015
:100230005308073A031926290B3A03192B29063AC2
:1002400003193329023A031939293E290130D40010
:10025000D50006214329D8010130D900932002306E
:10026000D4006C2043290130D4000230D50006218F
:100270004329D8011030D900932043290130D800F8
:100280005308D900932008000B08C6008B1383166F
:1002900003178C170C140000000083120C087F3920
:1002A00003198B290313C70003170D080313C80094
:1002B00003170F080313C9004708D3001821480883
:1002C00003178D000313490803178F0083168C173B
:1002D0000C140000000083120C0D0E0D7F39031961
:1002E0008B290313C70003170D080313C800031756
:1002F0000F080313C9004708D30018214808031743
:100300008D000313490803178F008D0A03198F0A04
:100310000313472903170313C61B8B170800831603
:100320000610831206108316861083128614831615
:1003300006118312061583168611831286158316FD
:1003400006168312061AA7293730F800512A831699
:1003500086168312861AAF293430F800512A831684
:1003600006178312061BB7293130F800512A83166D
:1003700086178312861BBF294330F800512A831643
:1003800006108312061483168610831286108316B5
:10039000061183120615831686118312861583169D
:1003A00006168312061AD7293830F800512A831608
:1003B00086168312861ADF293530F800512A8316F3
:1003C00006178312061BE7293230F800512A8316DC
:1003D00086178312861BEF293030F800512A8316C6
:1003E0000610831206148316861083128614831651
:1003F0000611831206118316861183128615831641
:1004000006168312061A072A3930F800512A831675
:1004100086168312861A0F2A3630F800512A831660
:1004200006178312061B172A3330F800512A831649
:1004300086178312861B1F2A3D30F800512A831627
:1004400006108312061483168610831286148316F0
:1004500006118312061583168611831286118316E0
:1004600006168312061A372A2F30F800512A8316EF
:1004700086168312861A3F2A2A30F800512A8316DC
:1004800006178312061B472A2D30F800512A8316BF
:1004900086178312861B4F2A2B30F800512A003012
:1004A000F8008A150A1252288E30F7004708F80023
:1004B0004608F900FA01F808031D682A7908F800CF
:1004C000F9010830F702F808031D682AF701702ABD
:1004D0000310F81B6F2AF90DF80DF703682AF813BB
:1004E000080053080319E12ADB0057080319E12A21
:1004F000DB070318822A7F30DB02031CE12A031981
:10050000E12A862A8130DB070318E12A5B08F7001D
:10051000F801F901FA015408DF00DF175508DE0081
:100520005608DD001830DB00DC015D1CAF2A5A08DC
:10053000FA07031CA12AF90A031DA12AF80A0319C4
:10054000DC175908F907031CA82AF80A0319DC1755
:100550005808D500D5175508F8070318DC17DC0D27
:10056000F80CF90CFA0CDF0CDE0CDD0C0310DB0BC5
:10057000942A0130F7070318E12AF81BC62ADF0D79
:10058000FA0DF90DF80DF7030319E12ADF1FD72A39
:10059000FA0A031DD72AF90A031DD72AF80A031DF0
:1005A000D72AF80CF90CFA0CF70A0319E12A5408B7
:1005B000DC005808DC06DC1FDF2AF817E52AF813F0
:1005C000E52AF701F801F901FA01080080308318E3
:1005D000CF06D401D5014B08D3004F08D3064A08F3
:1005E0000319D62BD200F7004E080319DF2BD202D5
:1005F00003197B2B031C392B4F08D800D817500840
:10060000D7005108D600D5010310D80CD70CD60C52
:10061000D50CD20B032BD31F102B5414F32B5410D7
:10062000521054164D3084008313082C5412D31BDF
:10063000232B521C2E2BD80CD70CD60CD50CF70A1A
:100640000319EE2B2E2BD81B312B0310D50DD60DF5
:10065000D70DD80DF7030319EE2B232B54179B2B23
:1006600054134B08D300D31F372BD817E72BD813BD
:10067000E72B4E08D200F7004A08D2024B08D800F8
:10068000D8174C08D7004D08D600D5010310D80C58
:10069000D70CD60CD50CD20B452BD31F522BD41410
:1006A000F32BD4105210D416513084008313082C2D
:1006B000D412D31B652B521C702BD80CD70CD60C24
:1006C000D50CF70A0319EE2B702BD81B732B0310D4
:1006D000D50DD60DD70DD80DF7030319EE2B652BCD
:1006E000D4179B2BD4134F08D300D31F792BD817C3
:1006F000E72BD813E72B4F08D800D8175008D7009E
:100700005108D600D31F882BD8135415F32B54113E
:10071000D50152104D3084008313082CD31BB12B0C
:100720004B08D300521C9B2BD80CD70CD60CD50CE5
:10073000F70A0319EE2BD51FAC2BD60A031DAC2BE1
:10074000D70A031DAC2BD80A031DAC2BD80CD70C31
:10075000D60CF70A0319EE2B541B302BD41B722B2B
:10076000D02B8030D806D81FB92BF32B4F08D300DD
:10077000C62B4B08D300D808031DC62BD708031D72
:10078000C62BD608031DC62BF701E72BD81BD02B91
:100790000310D50DD60DD70DD80DF70BC62BEE2BAC
:1007A000D31FD42BD817E72BD813E72B4E08F7000D
:1007B0004F08D8005008D7005108D600E72B4A0848
:1007C000F7004B08D8004C08D7004D08D600580851
:1007D000F8005708F9005608FA00262CF701F8012E
:1007E000F901FA01262CD501D609D709D809D5096E
:1007F000D50A031D012CD60A031D012CD70A0319A3
:10080000D80A54180F2BD418512B5419872BB62BF8
:100810000008D607031C122CD70A031D122CD80A75
:100820000319521484030008D707031C1A2CD80A92
:100830000319521484030008801F803AD807031854
:100840005214541A162BD41A582B8E2B08004A080F
:100850000319EC2CD6004E080319EC2CD602031C0D
:10086000362C7F30D6070318EC2C3C2C8130D60276
:10087000031CEC2C0319EC2C5608F700F801F901C5
:10088000FA01D5014B08D400D4174C08D3004D0809
:10089000D2001930D6005108D20203185F2C013063
:1008A000D30203185F2CD40203185F2CD50203185F
:1008B0005F2CD50AD40AD30A5108D207912C5008CC
:1008C000D30203187A2C0130D40203187A2CD502F3
:1008D00003187A2CD50AD40A5008D3075108D20736
:1008E000031C912CD30A031D912CD40A031D912CB7
:1008F000D50A912C4F088038D4020318902C01306F
:10090000D5020318902CD50A4F088038D407500818
:10091000D307031C6E2CD40A031D6E2CD50A6E2C33
:100920007A14D60B942C9F2C0310D20DD30DD40D1A
:10093000D50D0310FA0DF90DF80DD70D4B2C571CE2
:10094000A72C0310F80CF90CFA0CD70CAA2CF703FF
:100950000319EC2CD71BD32C0310D20DD30DD40DBF
:10096000D50D5108D2020318BF2C0130D302031851
:10097000BF2CD4020318BF2CD502031CE22C500854
:10098000D3020318CA2C0130D4020318CA2CD50292
:10099000031CE22C4F088038D4020318D32C0130FA
:1009A000D502031CE22CFA0A031DE22CF90A031DEE
:1009B000E22CF80A031DE22CF70A0319EC2CF80CC0
:1009C000F90CFA0C4B08D6004F08D606D61FEA2CB5
:1009D000F817F02CF813F02CF701F801F901FA01DF
:1009E0008A150A1257298E30F7004608F702470881
:1009F000F9004808F800F917F70803190A2D031041
:100A0000F908031D062DF80803190A2DF90CF80C36
:100A1000F70BFF2CC71F112DF809F909F80A031964
:100A2000F90A8A150A1272290B08C7008B1383165C
:100A300003178C170C14000000000318462D8312B6
:100A40000C087F390313C80003170D080313C900EE
:100A500003170F080313CA004808D30018214908D8
:100A600003178D0003134A0803178F0083168C1792
:100A70000C140000000083120313C60B402D432DFD
:100A800083160317462D652D8316031783120C0D4D
:100A90000E0D7F390313C80003170D080313C90097
:100AA00003170F080313CA004808D3001821490888
:100AB00003178D0003134A0803178F008D0A0319CB
:100AC0008F0A03100313C60B172DC71B8B178A152C
:100AD0000A12882983186F2D5B3084008313F70175
:100AE000F801F901FA01DB01DC01DD01DE015A0840
:100AF0005904580457040319AD2D2030DF000310AA
:100B0000D30DD40DD50DD60DDB0DDC0DDD0DDE0DB9
:100B10005A085E02031D962D59085D02031D962D8D
:100B200058085C02031D962D57085B02031CA72D75
:100B30005708DB025808031C580FDC025908031C35
:100B4000590FDD025A08031C5A0FDE020314F70D79
:100B5000F80DF90DFA0DDF0B7F2D5B088000840A7C
:100B60005C088000840A5D088000840A5E088000BA
:100B700008000408CB004A08CD000319D82D490805
:100B8000D6004808D5004708D4004608D300DA014B
:100B9000D9012030D8008230D70071227A08C900EC
:100BA0007908C8007808C7007708C600CD0BBF2DAC
:100BB0004908D6004808D5004708D4004608D300A5
:100BC0005308B63CD300FA015408D700D4170310D9
:100BD000D40CD50CD60CFA0CF90CF80CF70CD30B82
:100BE000E72DD71FFE2DF709F809F909FA09F70AC9
:100BF0000319F80A0319F90A0319FA0A7A08C9004D
:100C00007908C8007808C7007708C600C91F152EE4
:100C1000CB03CB16C609C709C809C909C60A0319F7
:100C2000C70A0319C80A0319C90A3B30D2009A300F
:100C3000D100CA30D000CF010A30CD004A080319D4
:100C4000CB0A83144630840083134908D600480831
:100C5000D5004708D4004608D3005208DA005108EE
:100C6000D9005008D8004F08D7006A257808F7083F
:100C7000031D4D2E4A0A4D0203194D2E4B08031930
:100C80004F2E0F394D020319472E03187F2ECB1B11
:100C90007F2E4B1B4F2E20307B2E2030CB05CB1EC2
:100CA0005D2ECB124A08031DCB037708CB002D30F5
:100CB000D30018214B08F700CB014A084D02031D51
:100CC0006B2E7708CB002E30D30018214B08F7008D
:100CD0002030CB0500303030CB1E7B2ECB124A08A3
:100CE000031DCB037708CB002D30D30018214B0810
:100CF000F700CB013030F7077708D30018218310B5
:100D00005208D6005108D5005008D4004F08D3002F
:100D1000DA01D901D8010A30D7006A257A08D20051
:100D20007908D1007808D0007708CF00CD0B212EAC
:060D30008A150A12962943
:1010000003081F398300FF30C50083161F149F1487
:101010001F159F1107309C00831300308600083095
:10102000880085308312900045114508831687009B
:10103000831207110830970083160C15C0308312F5
:101040008B048A11D3288A158316811301308312E9
:10105000D400D5008A1106218A15573003178D0058
:1010600000308F008A11031344218A150130D40007
:101070000230D5008A1106218A155D3003178D00D4
:1010800000308F008A11031344218A15AB012B080D
:10109000023C031C8B28AB012B08023C031C892853
:1010A0008A118F298A157808A700A70803198828AC
:1010B000FA30D4008A116C208A1528302B0784005E
:1010C0008313270880000C30D4000230D5008A1129
:1010D00006218A152808D3008A1118218A150D3097
:1010E000D4000230D5008A1106218A152908D300C0
:1010F0008A1118218A150E30D4000230D5008A11C9
:1011000006218A152A08D3008A1118218A15AB0AEC
:101110004C28AB0A472830302802C701C6008A1184
:1011200054228A157A08B0007908AF007808AE001A
:101130007708AD0030302902C701C6008A11542259
:101140008A157A08B4007908B3007808B2007708E5
:10115000B10030302A02C701C6008A1154228A1514
:101160007A08B8007908B7007808B6007708B500A3
:101170003408D6003308D5003208D4003108D30033
:10118000DA01D9012030D8008230D7008A117122CB
:101190008A1583103808CD003708CC003608CB00FC
:1011A0003508CA007A08D1007908D0007808CF0045
:1011B0007708CE008A11E6228A157A08C9007908D4
:1011C000C8007808C7007708C6003008D6002F0886
:1011D000D5002E08D4002D08D300DA01D9014830FB
:1011E000D8008530D7008A1171228A1583104908EA
:1011F000CD004808CC004708CB004608CA007A0852
:10120000D1007908D0007808CF007708CE008A1185
:10121000E6228A157A08BC007908BB007808BA0073
:101220007708B900D6018030D5007930D4008730F6
:10123000D3003C08DA003B08D9003A08D800390846
:10124000D7008A1171228A157A08C9007908C80066
:101250007808C7007708C60083104908CD00480801
:10126000CC004708CB004608CA00D101D130D000DD
:101270002630CF008F30CE008A11E6228A157A08F8
:10128000C9007908C8007808C7007708C60049086F
:10129000CD004808CC004708CB004608CA00D10161
:1012A000D0013430CF008530CE008A11272C8A152A
:1012B0007A08C0007908BF007808BE007708BD0032
:1012C0003C08C4003B08C3003A08C2003908C1000A
:1012D0004008C9003F08C8003E08C7003D08C600D6
:1012E0008A11F32C8A157908960078089500013048
:1012F000D400D5008A1106218A15633003178D00AA
:1013000000308F0003100B300313C6008A11142D18
:101310008A15893084004408C9004308C80042087F
:10132000C7004108C600CA018A11B92D8A152030AC
:10133000D3008A1118218A152030D3008A11182170
:061340008A154628630037
:02400E00713F00
:00000001FF
;PIC16F877A
;CRC=A4F9  CREATED="29-oct.-23 12:28"
