:1000000006308A00912E0000FF00030E8301A1003C
:100010000A08A0008A010408A2007708A300780853
:10002000A4007908A5007A08A600831383128C30F7
:100030008400001D1D280C192E2822088400230886
:10004000F7002408F8002508F9002608FA0020081F
:100050008A00210E8300FF0E7F0E09008A110A120A
:1000600039280A108A100A11820728340C34013406
:100070000634AC08031D42280715093097000130EB
:10008000AC004628071108309700AC018E018F01A3
:100090008E010C118A110A121D2841376717A029F9
:1000A000653976173D00493767392E104137671794
:1000B0003D0041376717A02965397617BD122E1804
:1000C000661020004F30840083130008031976283F
:1000D0000130F800F701F70B6B28F80B6A284A305B
:1000E000F700F70B71287428800B68280800560E5B
:1000F000F039F7000F300805770488000000081475
:100100008128081008000808F700080E0F39F800C9
:1001100008008316081088100811831288100F3009
:1001200083160805F03888008312081500000814AB
:10013000000083207808D600081000000814000092
:1001400083207808D50008100F3083160805880032
:100150008312560EF700F030F70577085504F800C3
:100160007808D500D51B8F28531C88105318881485
:100170000000081100000810540ED5000F30D505FE
:100180005508D600772054080F39D500D6007720BF
:1001900008000F3083160805880008108810081121
:1001A00083128810081108100F30CF006220013030
:1001B000C1004108033C031CE5280330D60077202A
:1001C0000530CF006220C10AD9280230D60077203E
:1001D0000530CF006220C1014108033C031CF9280F
:1001E00041083120C200D3014208D4008920C10A4D
:1001F000EC288A110A12AC2E500BFF28022940303D
:10020000D1000329D10101304F02D10751088038B4
:10021000D200D3015208D400892008004E08073AC2
:1002200003191C290B3A03192129063A0319292914
:10023000023A03192F2934290130CF00D000FC20C5
:100240003929D3010130D40089200230CF00622047
:1002500039290130CF000230D000FC203929D301E8
:100260001030D400892039290130D3004E08D40041
:10027000892008000B08C1008B13831603178C1705
:100280000C140000000083120C087F390319812927
:100290000313C20003170D080313C30003170F084D
:1002A0000313C4004208CE000E21430803178D003B
:1002B0000313440803178F0083168C170C140000D7
:1002C000000083120C0D0E0D7F39031981290313D1
:1002D000C20003170D080313C30003170F0803130D
:1002E000C4004208CE000E21430803178D000313FB
:1002F000440803178F008D0A03198F0A03133D2941
:1003000003170313C11B8B170800831606108312F3
:100310000610831686108312861483160611831224
:100320000615831686118312861583160616831208
:10033000061A9D293730F800472A8316861683123D
:10034000861AA5293430F800472A83160617831227
:10035000061BAD293130F800472A83168617831211
:10036000861BB5294330F800472A831606108312EE
:1003700006148316861083128610831606118312C4
:1003800006158316861183128615831606168312A8
:10039000061ACD293830F800472A831686168312AC
:1003A000861AD5293530F800472A83160617831296
:1003B000061BDD293230F800472A83168617831280
:1003C000861BE5293030F800472A83160610831271
:1003D0000614831686108312861483160611831260
:1003E000061183168611831286158316061683124C
:1003F000061AFD293930F800472A8316861683121B
:10040000861A052A3630F800472A83160617831203
:10041000061B0D2A3330F800472A831686178312ED
:10042000861B152A3D30F800472A831606108312D2
:1004300006148316861083128614831606118312FF
:1004400006158316861183128611831606168312EB
:10045000061A2D2A2F30F800472A83168616831293
:10046000861A352A2A30F800472A8316061783127F
:10047000061B3D2A2D30F800472A83168617831263
:10048000861B452A2B30F800472A0030F8008A11D5
:100490000A12D12E8E30F7004208F8004108F90008
:1004A000FA01F808031D5E2A7908F800F9010830FE
:1004B000F702F808031D5E2AF701662A0310F81BED
:1004C000652AF90DF80DF7035E2AF81308004E08A7
:1004D0000319D72AD60052080319D72AD6070318BA
:1004E000782A7F30D602031CD72A0319D72A7C2A00
:1004F0008130D6070318D72A5608F700F801F9010A
:10050000FA014F08DA00DA175008D9005108D8006C
:100510001830D600D701581CA52A5508FA07031C25
:10052000972AF90A031D972AF80A0319D7175408BE
:10053000F907031C9E2AF80A0319D7175308D0009D
:10054000D0175008F8070318D717D70DF80CF90C77
:10055000FA0CDA0CD90CD80C0310D60B8A2A01300D
:10056000F7070318D72AF81BBC2ADA0DFA0DF90D84
:10057000F80DF7030319D72ADA1FCD2AFA0A031D4B
:10058000CD2AF90A031DCD2AF80A031DCD2AF80C3D
:10059000F90CFA0CF70A0319D72A4F08D7005308A9
:1005A000D706D71FD52AF817DB2AF813DB2AF7015D
:1005B000F801F901FA01080080308318CA06CF015A
:1005C000D0014608CE004A08CE0645080319CC2BB8
:1005D000CD00F70049080319D52BCD020319712B63
:1005E000031C2F2B4A08D300D3174B08D2004C080A
:1005F000D100D0010310D30CD20CD10CD00CCD0BF8
:10060000F92ACE1F062B4F14E92B4F104D104F1611
:10061000483084008313FE2B4F12CE1B192B4D1C28
:10062000242BD30CD20CD10CD00CF70A0319E42BD9
:10063000242BD31B272B0310D00DD10DD20DD30D9E
:10064000F7030319E42B192B4F17912B4F1346086F
:10065000CE00CE1F2D2BD317DD2BD313DD2B490856
:10066000CD00F7004508CD024608D300D317470850
:10067000D2004808D100D0010310D30CD20CD10C09
:10068000D00CCD0B3B2BCE1F482BCF14E92BCF101A
:100690004D10CF164C3084008313FE2BCF12CE1B8F
:1006A0005B2B4D1C662BD30CD20CD10CD00CF70A53
:1006B0000319E42B662BD31B692B0310D00DD10D2E
:1006C000D20DD30DF7030319E42B5B2BCF17912B1E
:1006D000CF134A08CE00CE1F6F2BD317DD2BD313B9
:1006E000DD2B4A08D300D3174B08D2004C08D100A9
:1006F000CE1F7E2BD3134F15E92B4F11D0014D1078
:10070000483084008313FE2BCE1BA72B4608CE0057
:100710004D1C912BD30CD20CD10CD00CF70A031921
:10072000E42BD01FA22BD10A031DA22BD20A031D3A
:10073000A22BD30A031DA22BD30CD20CD10CF70A87
:100740000319E42B4F1B262BCF1B682BC62B8030A5
:10075000D306D31FAF2BE92B4A08CE00BC2B46088B
:10076000CE00D308031DBC2BD208031DBC2BD1081F
:10077000031DBC2BF701DD2BD31BC62B0310D00DA3
:10078000D10DD20DD30DF70BBC2BE42BCE1FCA2BF2
:10079000D317DD2BD313DD2B4908F7004A08D3000C
:1007A0004B08D2004C08D100DD2B4508F700460865
:1007B000D3004708D2004808D1005308F800520877
:1007C000F9005108FA001C2CF701F801F901FA01AF
:1007D0001C2CD001D109D209D309D009D00A031D9C
:1007E000F72BD10A031DF72BD20A0319D30A4F188E
:1007F000052BCF18472B4F197D2BAC2B0008D107A9
:10080000031C082CD20A031D082CD30A03194D140B
:1008100084030008D207031C102CD30A03194D14BB
:1008200084030008801F803AD30703184D144F1A21
:100830000C2BCF1A4E2B842B080045080319E22CF1
:10084000D10049080319E22CD102031C2C2C7F3063
:10085000D1070318E22C322C8130D102031CE22C88
:100860000319E22C5108F700F801F901FA01D0014F
:100870004608CF00CF174708CE004808CD001930F2
:10088000D1004C08CD020318552C0130CE020318BC
:10089000552CCF020318552CD0020318552CD00A22
:1008A000CF0ACE0A4C08CD07872C4B08CE0203187E
:1008B000702C0130CF020318702CD0020318702C5A
:1008C000D00ACF0A4B08CE074C08CD07031C872C53
:1008D000CE0A031D872CCF0A031D872CD00A872C34
:1008E0004A088038CF020318862C0130D002031842
:1008F000862CD00A4A088038CF074B08CE07031C45
:10090000642CCF0A031D642CD00A642C7A14D10BFA
:100910008A2C952C0310CD0DCE0DCF0DD00D0310CC
:10092000FA0DF90DF80DD20D412C521C9D2C03101F
:10093000F80CF90CFA0CD20CA02CF7030319E22CDA
:10094000D21BC92C0310CD0DCE0DCF0DD00D4C08F0
:10095000CD020318B52C0130CE020318B52CCF02FE
:100960000318B52CD002031CD82C4B08CE02031858
:10097000C02C0130CF020318C02CD002031CD82C8D
:100980004A088038CF020318C92C0130D002031C5A
:10099000D82CFA0A031DD82CF90A031DD82CF80A02
:1009A000031DD82CF70A0319E22CF80CF90CFA0CE9
:1009B0004608D1004A08D106D11FE02CF817E62CD2
:1009C000F813E62CF701F801F901FA018A110A126D
:1009D000B42F8E30F7004108F7024208F9004308AF
:1009E000F800F917F7080319002D0310F908031D83
:1009F000FC2CF8080319002DF90CF80CF70BF52C5A
:100A0000C21F072DF809F909F80A0319F90A8A1112
:100A10000A12C52F0B08C2008B13831603178C17FD
:100A20000C140000000003183C2D83120C087F39C1
:100A30000313C30003170D080313C40003170F08A3
:100A40000313C5004308CE000E21440803178D0090
:100A50000313450803178F0083168C170C1400002E
:100A6000000083120313C10B362D392D8316031793
:100A70003C2D5B2D8316031783120C0D0E0D7F3951
:100A80000313C30003170D080313C40003170F0853
:100A90000313C5004308CE000E21440803178D0040
:100AA0000313450803178F008D0A03198F0A0310DB
:100AB0000313C10B0D2DC21B8B178A110A12D72FDE
:100AC0008318652D563084008313F701F801F9016E
:100AD000FA01D601D701D801D901550854045304AD
:100AE00052040319A32D2030DA000310CE0DCF0DD0
:100AF000D00DD10DD60DD70DD80DD90D55085902F1
:100B0000031D8C2D54085802031D8C2D53085702C9
:100B1000031D8C2D52085602031C9D2D5208D6022F
:100B20005308031C530FD7025408031C540FD80258
:100B30005508031C550FD9020314F70DF80DF90DD4
:100B4000FA0DDA0B752D56088000840A57088000CC
:100B5000840A58088000840A5908800008000408A4
:100B6000C6004508C8000319CE2D4408D10043082B
:100B7000D0004208CF004108CE00D501D40120307A
:100B8000D3008230D20067227A08C4007908C300FB
:100B90007808C2007708C100C80BB52D4408D10001
:100BA0004308D0004208CF004108CE004E08B63CB2
:100BB000CE00FA014F08D200CF170310CF0CD00C93
:100BC000D10CFA0CF90CF80CF70CCE0BDD2DD21F62
:100BD000F42DF709F809F909FA09F70A0319F80ACF
:100BE0000319F90A0319FA0A7A08C4007908C3003C
:100BF0007808C2007708C100C41F0B2EC603C616B2
:100C0000C109C209C309C409C10A0319C20A0319E7
:100C1000C30A0319C40A3B30CD009A30CC00CA3055
:100C2000CB00CA010A30C80045080319C60A83145C
:100C30004130840083134408D1004308D0004208A7
:100C4000CF004108CE004D08D5004C08D4004B0819
:100C5000D3004A08D20060257808F708031D432E08
:100C6000450A48020319432E46080319452E0F3939
:100C7000480203193D2E0318752EC61B752E461B00
:100C8000452E2030712E2030C605C61E532EC612AA
:100C90004508031DC6037708C6002D30CE000E217F
:100CA0004608F700C60145084802031D612E770873
:100CB000C6002E30CE000E214608F7002030C605B3
:100CC00000303030C61E712EC6124508031DC60303
:100CD0007708C6002D30CE000E214608F700C60169
:100CE0003030F7077708CE000E2183104D08D10071
:100CF0004C08D0004B08CF004A08CE00D501D401E3
:100D0000D3010A30D20060257A08CD007908CC00E2
:100D10007808CB007708CA00C80B172E8A110A1270
:100D2000E32F03081F39830083161F149F141F1518
:100D30009F1107309C008313003087000830880023
:100D400085308312900007110830970083160C1528
:100D5000C03083128B04C92883168113013083129B
:100D6000CF00D000FC204D3003178D0000308F00E5
:100D700003133A210130CF000230D000FC20533061
:100D800003178D0000308F0003133A21AB012B08AD
:100D9000023C031CFB2EAB012B08023C031CF92E6A
:100DA00085297808A700A7080319F82EFA30CF0084
:100DB000622028302B0784008313270880000C3022
:100DC000CF000230D000FC202808CE000E210D30CC
:100DD000CF000230D000FC202908CE000E210E30BA
:100DE000CF000230D000FC202A08CE000E21AB0A32
:100DF000CC2EAB0AC72E30302802C201C1004A22D5
:100E00007A08B0007908AF007808AE007708AD0026
:100E100030302902C201C1004A227A08B4007908A0
:100E2000B3007808B2007708B10030302A02C2015E
:100E3000C1004A227A08B8007908B7007808B600DD
:100E40007708B5003408D1003308D0003208CF004D
:100E50003108CE00D501D4012030D3008230D20039
:100E6000672283103808C8003708C7003608C60054
:100E70003508C5007A08CC007908CB007808CA008C
:100E80007708C900DC227A08C4007908C300780812
:100E9000C2007708C1003008D1002F08D0002E080A
:100EA000CF002D08CE00D501D4014830D3008530C5
:100EB000D200672283104408C8004308C7004208D4
:100EC000C6004108C5007A08CC007908CB00780834
:100ED000CA007708C900DC227A08BC007908BB0088
:100EE0007808BA007708B900D1018030D000793095
:100EF000CF008730CE003C08D5003B08D4003A082C
:100F0000D3003908D20067227A08C4007908C300E8
:100F10007808C2007708C10083107A08C8007908F1
:100F2000C7007808C6007708C500CC01D130CB00D7
:100F30002630CA008F30C900DC227A08C400790844
:100F4000C3007808C2007708C1007A08C800790891
:100F5000C7007808C6007708C500CC01CB01343043
:100F6000CA008530C9001D2C7A08C0007908BF006E
:100F70007808BE007708BD004008C4003F08C300E1
:100F80003E08C2003D08C100E92C790896007808A7
:100F900095000130CF00D000FC20593003178D00A0
:100FA00000308F0003100B300313C1000A2D89306D
:100FB00084003C08C4003B08C3003A08C20039085A
:100FC000C100C501AF2D2030CE000E212030CE0053
:060FD0000E21C62E630095
:02400E00713F00
:00000001FF
;PIC16F877A
;CRC=8445  CREATED="04-ene.-24 13:39"
